:020000040800F2
:108000000000022061D50008DDD40008DDD400089E
:10801000DDD40008DDD40008DDD400080000000035
:10802000000000000000000000000000DDD4000897
:10803000DDD4000800000000DDD40008610100204C
:10804000DDD40008DDD40008DDD40008DDD400084C
:10805000DDD40008DDD40008DDD40008DDD400083C
:10806000DDD40008DDD40008DDD40008DDD400082C
:10807000DDD40008DDD40008DDD40008DDD400081C
:10808000DDD40008DDD40008DDD40008DDD400080C
:10809000DDD40008DDD40008DDD40008DDD40008FC
:1080A000DDD40008C1CF0008DDD400080DD00008E1
:1080B000DDD40008DDD40008DDD40008DDD40008DC
:1080C000DDD40008DDD40008DDD40008DDD40008CC
:1080D000DDD400083D8A00081D8B0008098C0008CB
:1080E000DDD40008DDD40008DDD40008DDD40008AC
:1080F000DDD40008DDD40008DDD40008DDD400089C
:10810000DDD40008DDD40008DDD40008DDD400088B
:10811000DDD40008DDD40008DDD40008DDD400087B
:10812000DDD40008DDD40008DDD40008DDD400086B
:10813000DDD40008DDD40008DDD40008DDD400085B
:10814000DDD40008DDD40008DDD40008DDD400084B
:10815000DDD40008DDD40008DDD40008DDD400083B
:10816000DDD40008DDD40008DDD40008DDD400082B
:10817000DDD40008DDD40008DDD40008DDD400081B
:10818000DDD40008DDD40008DDD40008DDD400080B
:10819000DDD40008DDD40008DDD40008DDD40008FB
:1081A000DDD40008DDD40008DDD40008DDD40008EB
:1081B000DDD40008DDD40008DDD40008DDD40008DB
:1081C000DDD40008DDD40008DDD40008DDD40008CB
:1081D000DDD40008DDD4000870B5094D0024064642
:1081E0002C802B889BB2B34200D370BD2B889BB2EE
:1081F000A342F6D02C88A4B205F022FDF1E700BF1F
:108200001002002008B501217F2005F065FD012145
:10821000102005F085FD01214FF4003005F074FDBC
:1082200001214FF4802005F06FFDBDE808400248B1
:10823000012105F069BD00BF0000071010B53F4CDB
:1082400007222046022105F001FC204607220321D7
:1082500005F0FCFB204612230322042105F008FC54
:10826000122320460322082105F002FC20460722A3
:10827000092105F0EBFB204607220A2105F0E6FB69
:108280002046122303224FF4007105F0F1FB122364
:108290002046032204F580644FF4806105F0E8FB7A
:1082A000204607220A2105F0D1FB204607220B2198
:1082B00005F0CCFB2046122303224FF4806105F029
:1082C000D7FB2046122303224FF4006105F0D0FBB8
:1082D0000123194604F580541948032205F0C8FB10
:1082E000012303224021204605F0C2FB0123032283
:1082F0004FF40071204605F0BBFB012303224FF42D
:108300008061204605F0B4FB0E48012303224FF4A0
:10831000807105F0ADFB0C4B0C480122C3F88022A4
:1083200003F5C0330021C3F89812C3F8A422C3F8A0
:10833000A822C0F8A012C3F8982210BD0000024085
:108340000008024000180240000041420000434281
:1083500002494FF0006005F0C7B900BF008000007F
:108360008FB5FFF74FFFFFF7F3FFFFF767FF684693
:1083700005F06EFC494B4FF47A721B68B3FBF2F3C5
:10838000013BB3F1807F6ED24FF0E022444D536148
:10839000F02385F823300026072396614FF44070C0
:1083A000136105F06BF905F0ADFA012804465BD1C5
:1083B00002F024F802F09AFF02F000FA04F0C8FE7E
:1083C00005F066F802F00AFB4FF6FF7002F0CAFCF7
:1083D000344A354D2146204602F052FF304605F022
:1083E00013F8324E324C334F2B889BB2002BFBD00C
:1083F00000232B8005F024FC02F03CFA20703A7830
:1084000023789A4208D023782B4ADBB23B7023783A
:108410000721012002F034FF04F026FF01F01EFFC7
:10842000264B1B7803F0FF02002BDDD1244B1B7879
:10843000012B244B18BF0122C3F8A422337813B9AF
:10844000214B1B781BB11F4B0022C3F8A8223378A5
:10845000002BC7D11C4B1B78002BC3D1194B012219
:10846000C3F8A822BEE7FEE705F020FA05F034FACB
:10847000552005F0D5FA05F0DFFA05F03BFA05F0D6
:1084800023FABFF34F8FEA68104B02F4E062134304
:10849000EB60BFF34F8F00BFFDE700BF040000207B
:1084A00000ED00E098F4000812020020DD2B00200F
:1084B0000E0200200D020020A7F400080C0200208C
:1084C0000F02002000804242DE2B00200400FA054B
:1084D000BFF34F8F0549064BCA6802F4E0621343AD
:1084E000CB60BFF34F8F00BFFDE700BF00ED00E0A2
:1084F0000400FA0508B505F0D9F90849084B094AFE
:108500000B6000230868C05842F8040B0433B3F52D
:10851000806FF7D1BDE8084005F0D6B9D82B002010
:1085200000400008D827002070B50E4E0E4B336077
:1085300072B605F0BBF90221082005F01DFA0B4BBD
:108540000B4D18700024306855F8041B2044043487
:1085500005F048FAB4F5806FF5D105F0B5F962B6CB
:1085600070BD00BFD82B0020004000080000002094
:10857000D827002070B4424B1A78424B1A60424A06
:1085800012785A60414A12789A60414A1278DA6049
:10859000404A128892B21A613F4A12785A613F4AA1
:1085A00012689A613E4A1268DA613E4A12681A629B
:1085B0003D4A03F1240502F12006106851682C465B
:1085C00003C40832B2422546F7D1384A384D02F189
:1085D0002006106851682C4603C40832B242254672
:1085E000F7D1344A344D02F14006106851682C46E8
:1085F00003C40832B2422546F7D1304A304D02F169
:108600004006106851682C4603C40832B242254621
:10861000F7D12C4A2C4D02F12006106851682C46E7
:1086200003C40832B2422546F7D1284A284D02F148
:108630002006106851682C4603C40832B242254611
:10864000F7D1244A244D02F12006106851682C46C7
:1086500003C40832B2422546F7D1204A204D02F128
:108660002006106851682C4603C40832B2422546E1
:10867000F7D11C4AC3F8682170BCFFF755BF00BF93
:1086800066030020D8270020B0030020AE0300209E
:10869000AF030020AC0300205F0300207C03002018
:1086A0007803002074030020390300201903002000
:1086B0001C280020D90200203C280020990200201C
:1086C0007C28002079020020BC28002059020020CC
:1086D000DC28002039020020FC280020190200209C
:1086E0001C290020056866682DE9F84FFFF702FF96
:1086F000624BDFF8A8811A78DFF8A4E188F800203F
:10870000DFF8A0C11A798EF800205D4F1A7A8CF834
:1087100000205C4E1A7B3A705B4D1A8A32805B4CAB
:108720001A7D2A709A692260594AD9691160594A9A
:10873000196ADFF87491116003F1240A03F1440B04
:10874000524603CA5A45C9F80000C9F804109246B7
:1087500009F10809F4D1DFF854A1DFF854910AF1C6
:10876000200B524603CA5A45C9F80000C9F8041044
:10877000924609F10809F4D1DFF838A1DFF8389101
:108780000AF1400B524603CA5A45C9F80000C9F81D
:108790000410924609F10809F4D1DFF820A1DFF8AE
:1087A00020910AF1400B524603CA5A45C9F800000D
:1087B000C9F80410924609F10809F4D1DFF804A1C0
:1087C000DFF804910AF1200B524603CA5A45C9F852
:1087D0000000C9F80410924609F10809F4D1DFF845
:1087E000ECA0DFF8EC900AF1200B524603CA5A4580
:1087F000C9F80000C9F80410924609F10809F4D13B
:10880000DFF8D0A0DFF8D0900AF1200B524603CA5F
:108810005A45C9F80000C9F80410924609F1080940
:10882000F4D1DFF8B8A0DFF8B8900AF1200B524677
:1088300003CA5A45C9F80000C9F80410924609F164
:108840000809F4D1D3F86821134B9A4213D0282396
:1088500088F800303C2200238EF800308CF800208D
:1088600040F25B723B70328001222A70084A23601A
:108870001360084A1360BDE8F88F00BFD8270020B6
:10888000AF030020AC0300205F0300207C03002026
:1088900078030020740300200568666866030020E2
:1088A000B0030020AE030020390300201C28002064
:1088B000190300203C280020D90200207C28002039
:1088C00099020020BC28002079020020DC2800202A
:1088D00059020020FC280020390200201C29002019
:1088E00019020020F0B50023314F054601449C4693
:1088F0001846A94202EB000408D1BCF1010F3AD09E
:10890000BCF1020F47D000231354F0BDBCF1010F9E
:1089100015F8016B0ED0BCF1020F17D0BCF1000F9F
:1089200006D1B3080130FB5C237080B24FF0010C1C
:108930003346DEE71B0103F0300343EA1613013030
:10894000FB5C237080B24FF0020CF1E79B0003F058
:108950003C0343EA961300F1010CFB5C237006F024
:108960003F031FFA8CFCFB5C02F80C30023080B233
:108970004FF0000CDCE71B010D4903F03003CB5C2A
:108980002370411C831C9BB289B23D240330545494
:1089900080B2D454B7E79B00054D03F03C03411C63
:1089A000EB5C237089B202303D23535480B2AAE7B6
:1089B000E0F80008F0B5074611F0030038D00020B9
:1089C000F0BD94F800E0C3F30115013045EA0E054F
:1089D00080B225701B0113540136B5B28D42EFD21F
:1089E000BB5D3D2BECD0A3F12B044F2CE7D81CF83A
:1089F0000330FF2BE3D005F00305022D02EB00044A
:108A000006D0032D0FD0012DDBD09B002370E3E7B0
:108A100094F800E0C3F38305013045EA0E0580B207
:108A200025709B01D7E72578013080B22B43EDE715
:108A3000DFF804C00646D0E760F8000810B52E48FD
:108A400040F2255105F0A2FAB0B12B4805F082FAA8
:108A50002A4A2B4913889BB2C854138826480133ED
:108A60009BB21380274B01221A70274B002240F241
:108A700025511A7005F0AAFA1F4840F2277105F037
:108A800085FAB8B1214C224B22881B8892B29BB246
:108A90009A4224D223881F4A17489BB2D15C05F022
:108AA00055FA238801339BB22380134840F2277183
:108AB00005F08CFA104840F2266105F067FA68B1BB
:108AC00000220D4840F2266105F048FA0A4840F2BB
:108AD000266105F07BFA104B00221A7010BD064883
:108AE000002240F2277105F039FA0348012240F2D2
:108AF000266105F033FAD8E700100140F22B002080
:108B0000D5260020DE2B0020E12B0020F02B0020BA
:108B1000EE2B0020D5250020DD2B002010B530489D
:108B200040F2255105F032FAB0B12D4805F012FAA5
:108B30002C4A2D4913889BB2C85413882848013306
:108B40009BB21380294B01221A70294B002240F25C
:108B500025511A7005F03AFA214840F2277105F0C4
:108B600015FAB8B1234C244B22881B8892B29BB2D1
:108B70009A4227D22388214A19489BB2D15C05F03A
:108B8000E5F9238801339BB22380154840F2277111
:108B900005F01CFA124840F2266105F0F7F980B1A1
:108BA00000220F4840F2266105F0D8F90C4840F247
:108BB000266105F00BFA124A00231370114AC2F81D
:108BC000A03210BD0648002240F2277105F0C6F918
:108BD0000348012240F2266105F0C0F9D5E700BF45
:108BE00000440040EC2B0020D5240020DE2B002088
:108BF000E02B0020EA2B0020E82B0020D5230020CA
:108C0000DD2B00200000434210B5314840F22551D1
:108C100005F0BCF9E0B12F4C2D4805F09BF92388F5
:108C20002D4A9BB2D05423882C489BB2D15C05F0CE
:108C30008DF92388264801339BB22380284B0122DB
:108C40001A70284B002240F225511A7005F0BEF927
:108C50001F4840F2277105F099F9B8B1224C234B17
:108C600022881B8892B29BB29A4224D22388204A3F
:108C700017489BB2D15C05F069F9238801339BB298
:108C80002380134840F2277105F0A0F9104840F204
:108C9000266105F07BF968B100220D4840F226619B
:108CA00005F05CF90A4840F2266105F08FF9114B96
:108CB00000221A7010BD0648002240F2277105F00C
:108CC0004DF90348012240F2266105F047F9D8E743
:108CD00000480040E62B0020D51B0020001001407A
:108CE000DE2B0020DF2B0020E42B0020E22B0020D5
:108CF000D5130020DD2B002008B5074B1880074B4B
:108D0000074800221A8040F22771012205F026F957
:108D1000044B01221A7008BDE22B0020E42B002036
:108D200000480040DD2B002038B5184C23889BB24A
:108D300043B3174A1378022B1CD15379032B19D153
:108D40001449537809788B4201D0212B12D19078A5
:108D5000D5781179927983F0020343406B404B4000
:108D600083F003039A4205D128400140FF2901D135
:108D7000FFF7AEFB2288064892B2002105F0C0F949
:108D800000232380044B00221A7038BDF22B0020F0
:108D9000D5260020DC2B0020DE2B002038B5184C17
:108DA00023889BB243B3174A1378022B1CD1537903
:108DB000032B19D11449537809788B4201D0212B08
:108DC00012D19078D5781179927983F002034340DB
:108DD0006B404B4083F003039A4205D12840014089
:108DE000FF2901D1FFF774FB2288064892B20021C7
:108DF00005F086F900232380044B00221A7038BD49
:108E0000EC2B0020D5240020DC2B0020DE2B0020C2
:108E1000644B022210B51A709870412211385A70B2
:108E200005283ED8DFE800F003697E8994A95E4AF0
:108E30001278DA705D4A12781A715D4A12785A71A6
:108E40005C4A12789A715C4A1278DA715B4A11684E
:108E5000090E19721168090C597211681268DA72D8
:108E6000574A090A99721168090E19731168090C99
:108E7000597311681268DA73524A090A99731168B2
:108E8000090E19741168090C59741168090A99744A
:108E90004D491268DA740A88C2F307221A750A88E3
:108EA0005A7503223F4883F843200221432210F8D9
:108EB000014F013A92B26140002AF8D1434C83F845
:108EC0004410452323802188414A364889B2FFF760
:108ED00009FD404B3E49188022881A881B883E4A6B
:108EE00030489BB21380128892B205F077FB3B4A60
:108EF000012313703A4A137010BD3A4A3A4902F1FD
:108F0000200052F8044B41F8044B8242F9D1374A11
:108F1000374902F1200052F8044B41F8044B8242D9
:108F2000F9D1BEE7334A304902F1400052F8044B10
:108F300041F8044B8242F9D1B3E72F4A2A4902F1A2
:108F4000400052F8044B41F8044B8242F9D1A8E7A3
:108F50002A4A254902F1200052F8044B41F8044BFB
:108F60008242F9D1264A224902F1200052F8044BEC
:108F700041F8044B8242F9D193E7224A1A4902F19F
:108F8000200052F8044B41F8044B8242F9D11E4AAA
:108F9000174902F1200052F8044B41F8044B824279
:108FA000F9D17EE7D503002066030020B00300203E
:108FB000AE030020AF0300205F0300207C030020ED
:108FC0007803002074030020AC030020A0030020DD
:108FD000D5130020E42B0020A80300206303002009
:108FE0006903002039030020D80300201903002062
:108FF000F8030020D9020020990200207902002005
:109000005902002039020020190200202B4B2C4865
:10901000422110B55970018841F3072199700188E8
:109020002848D970018841F3072119710188264821
:109030005971018841F3072199710188D971234938
:109040000988C1F3072119722149098859722149F8
:109050000978997220490978D972204909781973D9
:109060001F49097859730222032199731A700E213E
:10907000184613F8014F013989B262400029F8D12E
:10908000184CC273102323802188174A0B4889B2D9
:10909000FFF728FC154B1449188022881A881B8872
:1090A000134A06489BB21380128892B205F096FAD2
:1090B000104A01231370104A137010BDD50300200D
:1090C000582D00205C2D00205A2D00201402002075
:1090D000722D00200E02002018020020170200202E
:1090E00016020020A0030020D5130020E42B00204E
:1090F000A803002064030020690300202DE9F04745
:10910000AB4CAC4D2246FFF755FC0329288040F2BA
:1091100098812278022A3DD16378412B3AD194F884
:109120004330032B36D12B889BB2442B32D92146B6
:10913000432311F8010F013B9BB24240002BF8D1B1
:1091400094F84410914225D1A0789B4A25281360B9
:109150001DD80F281ED9A0F11003152B1AD8DFE84F
:1091600013F0A200A200A200A200A200A200A2008E
:109170001900190019001900190019001900190027
:109180001900A500C600DC00E800F4000A01502820
:1091900000F086802278022A40F053816378422BC7
:1091A00040F04F81E37D032B40F04B812B889BB235
:1091B000182B40F246817E49172311F8010F013B1D
:1091C0009BB24240002BF8D1217E914240F0398180
:1091D000794ADFF85C921360DFF85882A37889F847
:1091E0000030764FE37888F80030754D23793B7076
:1091F00063792B70E388734C734A5BBA2380734B9B
:10920000164603F1100153F8040B42F8040B8B428D
:10921000F9D1FFF7FBFE99F80030002B00F0118127
:1092200098F800206A4B002A00F0BF800022C3F8A3
:10923000A4223A78664B002A00F0FE800022C3F890
:10924000A8222A78624B02F0FF01002A00F0F68083
:109250000122C3F8A02220885E4C80B204F0D4F82A
:109260000023594833742146237404F0E9FF002891
:1092700000F0E780544B03F1100253F8041B44F84C
:10928000041B9342F9D1544A0821012001F0F8FF50
:10929000BDE8F0474F4B514A0821012001F0F0BFD3
:1092A0004F4B01221A70FFF7B3FD73E74D4BE27885
:1092B0001A704D4B22791A704C4B62791A704C4BD4
:1092C000A2791A704B4BE2791A70A3684A4A1BBA0A
:1092D0001360E368494A1BBA13602369484A1BBA02
:1092E0001360A38A474A5BBA13803020DBE7464B02
:1092F000464A03F1200153F8040B42F8040B8B4259
:10930000F9D1434B434A03F1200153F8040B42F8CF
:10931000040B8B42F9D13120C5E73B4B3E4A03F1A8
:10932000400153F8040B42F8040B8B42F9D1322070
:10933000B9E7354B394A03F1400153F8040B42F8C1
:10934000040B8B42F9D13320ADE72F4B344A03F1A4
:10935000200153F8040B42F8040B8B42F9D12C4B3B
:10936000304A03F1200153F8040B42F8040B8B42FE
:10937000F9D1342097E7244B2B4A03F1200153F80D
:10938000040B42F8040B8B42F9D1214B274A03F11D
:10939000200153F8040B42F8040B8B42F9D135201D
:1093A000FFF736FDFFF7E6F8F4E601223FE700BFDE
:1093B000D50B00209E03002084030020170200200C
:1093C0001602002014020020B1030020DD0B002053
:1093D00000804242C2030020B5F40008CBF400082C
:1093E0006703002066030020B0030020AE030020C6
:1093F000AF0300205F0300207C03002078030020DF
:1094000074030020AC030020D80B00203903002097
:10941000F80B002019030020D90200209902002037
:109420007902002059020020390200201902002090
:109430000C02002018020020012200E7C3F8A0124D
:1094400009E7BDE8F08700BF0B4A002313700B4A01
:1094500013700B4A13700B4A13700B4A13700B4AAC
:1094600013700B4A13700B4A13700B4A13700B4A9C
:1094700013700B4A137070476F0300206E030020B7
:109480006A0300206D0300206C0300206B030020A2
:109490005B0300205A0300205903002069030020C9
:1094A0005C0300202DE9F047864C25688AB0002D2A
:1094B00040F0BF80844B1B7853B184498448FFF748
:1094C000C3FF05F02DF8834B1D704FF47A732CE029
:1094D000814B1B78F3B1814B81491A78502A84BFA4
:1094E00050221A701A78022A9CBF03221A700A8826
:1094F00092B2012A81BF00220A8028221A701A78AB
:109500007849272A9CBF28221A701A78704803F0DD
:10951000C5FC09E0744B1B785BB1744B1B7833B10D
:1095200073496B4804F0FCFFC82323606CE0714969
:10953000F7E7714B1B780BB17049F2E7704B1B7862
:1095400093B16A4B1B7833B16E4B6F491A78604800
:1095500003F0A4FC05E06D4B6D4A6E495C4803F0D6
:109560009DFC41F28833E0E76B4A1378002B63D00F
:109570005E4B1B7833B16949554804F0D1FF4FF475
:10958000FA73D2E7664B197801F0FF03002936D051
:1095900064490A680B6808680D6863490E680F68BB
:1095A000D1F800C0D1F800E06049D1F80080D1F8CE
:1095B0000090D1F800A00968090E0991CAF307418B
:1095C0000891C9F3072107915FFA88F106914FEAE4
:1095D0001E610591C7F30727CCF30741F6B22D0EA4
:1095E000C0F30740049100905149039702960195FA
:1095F000C3F30723D2B2364803F050FCBFE7137021
:1096000023604C4B01221A70236893B1304805F057
:1096100097F8494B80B218801888C0B2FFF76CFBEE
:109620004FF400624548002104F06AFD444B0022DB
:109630001A800AB0BDE8F0873E4B1B780BB1414958
:109640006FE7414B1B780BB140496AE7404B1B78F1
:1096500053B1404B40491A78404B00930132404B84
:109660001B4803F01BFC5FE73E4B1B782BB13E4BC6
:109670003E4A1B883E499BB270E73E4B1B782BB19C
:10968000144B3D4901221A703C4A60E73C4D2B784F
:10969000002B00F09B80154B1B7803F0FF07002B7D
:1096A00078D0384B38491A78384B09481B889BB218
:1096B00003F0F4FB364B01221A706423236000236D
:1096C0002B70A1E78C03002070030020D3F4000866
:1096D000D5130020650300206F03002066030020DF
:1096E000AA030020DCF400086E0300205F030020C2
:1096F000ECF40008FAF400086203002008F5000802
:109700006A0300205E0300201FF5000819030020F3
:109710003903002045F500086D0300205AF50008C4
:10972000B00300207C030020780300207403002095
:1097300095F500086C030020E42B0020D51B0020C9
:10974000E62B0020CBF500086B030020D9F50008BC
:109750005B030020AF030020F0F500085902002051
:10976000790200205A030020AC030020D902002017
:1097700022F60008590300203CF6000819020020D8
:10978000690300207103002052F60008A80300209E
:1097900068030020154E337883B1154B1B786BB1ED
:1097A000144B154A1B88154915489BB203F076FBEC
:1097B000144B01221A70642337702360124B1A78FD
:1097C000002A3FF47CAF00221A706AE70F4B1B7827
:1097D00013B10F4A0F4999E60F4B1B78002B3FF44A
:1097E00013AF0E49064804F09BFE6EE664030020AA
:1097F00065030020E42B00203902002065F60008F4
:10980000D513002068030020630300205D030020BF
:109810009902002083F600085C0300209CF60008F3
:1098200010B40F490F4B09785970412199702021CC
:1098300006200222D9705971997103211871D971CA
:109840001A700721184613F8014F013989B2624096
:109850000029F8D102725DF8044B0920FFF74CBAD9
:10986000DC2B0020D51300202DE9F041844E3388F5
:109870009BB2B3F5006F24BF0023338033889BB2C3
:10988000002B00F064827F4D2B78022B28D17E4A7A
:109890006B781278934223D16A79032A20D13288D7
:1098A00092B2062A1CD9A978E8782A79AC7983F093
:1098B00002034B404340534083F003039C420FD1CB
:1098C00001400A40FF2A01D1FEF702FEFFF7A8FF80
:1098D0006E4A012313706E4A13706E4B64221A6035
:1098E000338815FA83F313F8033C0D2B40F0B7804F
:1098F000338815FA83F313F8027C0A2F40F0AF8007
:10990000338815FA83F313F8013C3E2B40F0A7800F
:1099100033889BB2032B40F2A2805F4B1A789AB136
:10992000DFF88C815D495E4800241C70B8F8002087
:1099300092B204F053FEB8F80000C0B2FFF7DCF9B1
:10994000544B1F60574B1C600124338815FA83F376
:1099500013F8043C0D2B30D1338815FA83F313F838
:10996000037C0A2F29D1338815FA83F313F8023CBC
:109970003E2B22D1338815FA83F313F8013C202BB8
:109980001BD133889BB2042B17D9ACB9424B1A7840
:1099900092B1DFF81C811C70B8F800203F494048A4
:1099A00092B204F01BFEB8F80000C0B2FFF7A4F9B1
:1099B000384B1F603B4B1C6001243B4931480B2254
:1099C00004F0F0FB28B139492E480E2204F0EAFBDE
:1099D00010BB04BB338815FA83F313F8013C3E2B0C
:1099E00019D12D4B1A78B2B1314F1C703A882B49DE
:1099F0002B4892B204F0F2FD3888C0B2FFF77CF930
:109A00003288204892B2214604F07AFB214B348000
:109A10001C60244B1C6001242F780D2F40F089809E
:109A20006B780A2B40F0858022492348042204F0F9
:109A3000B9FB00287DD1002C7AD1AB792C2B77D1C2
:109A40002B7A2C2B74D1AB7A1C491D483A2B08D1A8
:109A50006B7A303B9BB20B800B23038047E00024E2
:109A600073E7EC7A3A2C2DD16A7A303A02EB820213
:109A7000303B03EB42039BB20B800C23EDE700BFAE
:109A8000E62B0020D51B0020DC2B00205F030020EC
:109A9000700300208C03002068030020D503002001
:109AA000D513002088030020AEF60008BAF600089F
:109AB000A8030020C9F60008D71B0020A603002039
:109AC000A40300202A7B3A2A40F082816A7A303A45
:109AD00002EB820202EB8202303C303B04EB820458
:109AE00003EB830304EB4304A4B20C8007803288A9
:109AF00003880C88A4B292B214FA83F39A4217DB5B
:109B0000EB79954A303BDBB213700088098815FA6F
:109B100080F089B2FFF7F2FA904B914800241C6064
:109B2000904B1C603288214692B204F0E9FA3480EE
:109B300001248D498A480C2204F034FB002835D1D9
:109B4000002C32D1894B1B889BB203F1110189B2E1
:109B50006A5C2C2A29D12944854C8A78854F2C2A85
:109B600040F053814A78303A92B2228014339BB24B
:109B70003B8032883B88218889B292B211FA83F304
:109B80009A4212DB3888218815FA80F089B2FFF7F3
:109B9000B5FA3288724892B2002104F0B1FA6F4AE5
:109BA0000023338013606F4A13600124338815FA51
:109BB00083F313F8023C0D2B40F0BE80338815FA76
:109BC00083F313F8013C0A2B40F0B680002C40F0E0
:109BD000B380DFF890816849C8F80040308880B2CF
:109BE00007380522284404F0DDFA002840F05581AA
:109BF0005A4B1C60614B1C70614B01271F703088F1
:109C0000604980B20B380422284404F0CBFA5E4944
:109C100000284FF00E02524808BF012704F0C2FA94
:109C200080B95A4B1B786BB95FB9594959480B2217
:109C300004F0B8FA28B9584B1B7813B1574B0122DE
:109C40001A7001273088564980B207380522284407
:109C500004F0A8FA50B13088524980B20638042284
:109C6000284404F09FFA002840F03C81002F40F087
:109C70003981494B1A7802F0FF0352B14A4A1388DE
:109C800001339BB2138013889BB2042B00F207812F
:109C90000123464A1278F2B1E3B945490A880132F4
:109CA00092B20A800A8892B2042A13D9334A0B80EE
:109CB000012040491070C8F800300A88024492B26E
:109CC0000A800A8892B2824204D9304A0B8010700E
:109CD000224A13600123384A127882B173B9374996
:109CE0000A88013292B20A800A8892B2092A05D9FA
:109CF000224A0B8001211170184A13600123304A57
:109D0000127882B173B92F490A88013292B20A805F
:109D10000A8892B2132A05D9184A0B8001211170C2
:109D20000E4A13600123164A12782AB123B9264A33
:109D3000138801339BB2138033889BB23BB13288C6
:109D4000074892B2002104F0DBF9002333801F4B57
:109D500000221A70BDE8F081710300208C030020FE
:109D6000D51B002088030020CEF600089C030020AD
:109D7000A6030020A4030020DBF6000870030020E7
:109D80006F030020E1F60008EBF600085F030020F7
:109D9000FAF60008E51B00206A030020610300209A
:109DA00006F700080CF700089A0300205A03002069
:109DB0009603002094030020590300209003002004
:109DC0006903002092030020AA030020DE2B00205C
:109DD0006F7B3A2F7FF48BAE6F7A303FC7EB471C17
:109DE000303B07EB8C07303A03EB830302EBC702EF
:109DF00003EB8303303C02EB830304EB840403EBAB
:109E000044039BB20B800E2327E691F803C0BCF1FC
:109E10002C0F0AD14978303901EB8101303A02EB3D
:109E2000410292B222801533A1E608792C2814D180
:109E30004978303901EB810101EB8101ACF1300C43
:109E4000303A0CEB810C02EB82020CEB420C1FFA55
:109E50008CFCA4F800C0163389E691F805E0BEF149
:109E60002C0F7FF486AE49783039C1EB411E303A71
:109E700001EB8E01303802EB820200EBC10002EBF5
:109E80008202ACF1300C00EB82020CEB8C0C02EB8A
:109E90004C0292B22280173369E62746AFE60A4B9E
:109EA00017801F70094B3C221A70094B1F70094B19
:109EB00040F25B721A80084A01231370074A13703C
:109EC000074B1F60E4E600BFB0030020AE03002094
:109ED000AF030020AC0300205F03002070030020CC
:109EE0008C030020338815FA83F313F8043C4F2BBE
:109EF0007FF422AF338815FA83F313F8033C4B2B1E
:109F00007FF41AAF338815FA83F313F8063C0D2B50
:109F10007FF412AF338815FA83F313F8053C0A2B4C
:109F20007FF40AAF83498448082204F03BF960B902
:109F300082498148042204F035F930B9804B1A78FF
:109F400012B118707F4B188001242B780D2B2CD167
:109F50006B780A2B29D1AB784F2B26D1EB784B2B82
:109F600023D10CBB784B1A7842B1784A117829B1C9
:109F70001470774A01211170764A14601A7802F041
:109F8000FF033AB9744A117821B113706F4A137004
:109F9000704A1360714A137833B100231370704A0A
:109FA000012111706B4A136001246E496248082236
:109FB00004F0F8F860B95CB9634B1B7843B1634BAC
:109FC0001A782AB11C70624B01221A70614B1C6016
:109FD0003088654980B213380B22284404F0E2F837
:109FE00060B954B9594B1A78002A00F012811C70DC
:109FF000574B01221A70574B1C6001245B494E4895
:10A000000C2204F0CFF888B97CB9594B1A7862B1A8
:10A010001C704D4B1B782BB9564B1B7813B1564B0C
:10A0200001221A704B4B00221A6001245349424806
:10A030000A2204F0B7F850B944B9514B1A782AB142
:10A040001C70504B01221A70424B1C6001244E4977
:10A050003948092204F0A6F878B974B9494B1A783E
:10A060005AB11C70384B1A780123002A40F0DE8068
:10A07000464A1370374B00221A6045492E48082281
:10A0800004F090F828B143492B48092204F08AF8DB
:10A0900050B944B92E4B1A782AB11C703E4B01229C
:10A0A0001A702C4B1C6001243C492348092204F0FF
:10A0B00079F850B944B9384B1A782AB11C702C4B36
:10A0C00001221A70234B1C60012435491A480E22C4
:10A0D00004F068F850B944B9274B1A782AB11C70BB
:10A0E000304B01221A701B4B1C6001242E49124870
:10A0F0000E2204F057F870B964B92A4B1A784AB1A5
:10A100001C70164B01221A70284B1C80284B1C8097
:10A11000104B1C600124274907480D2204F042F827
:10A12000002850D1002C4DD10D4B1A78002A49D06F
:10A1300042E000BF11F70008D51B00201AF7000805
:10A1400069030020920300205F0300206A030020BF
:10A150006D0300208C0300206103002059030020C0
:10A160005D0300201FF70008FAF6000828F7000832
:10A170006B030020600300205B03002035F700081C
:10A180006F0300206E03002040F7000862030020E8
:10A190004AF7000853F700086C0300205DF7000839
:10A1A00067F700085A03002076F7000894030020A0
:10A1B0009603002085F700081C701D4B01221A70C1
:10A1C0001C4B1C8001241C491C480E2203F0EAFF92
:10A1D00028B91CB9164B1A7802B11C700124184911
:10A1E00016480D2203F0DEFF00287FF4A5AD002CF9
:10A1F0007FF4A2AD134B1A78002A3FF49DAD1C707A
:10A20000114B1B78002B7FF497AD104B01221A7075
:10A2100092E50F4B1B78002B3FF4EFAE0D4B1A78F5
:10A22000002A3FF4EAAE1C700B4BE2E6074A20E737
:10A230005C0300209003002093F70008D51B00204A
:10A24000A2F70008620300205F0300206A030020D9
:10A25000B00300206D0300206C030020424B1B88DC
:10A260009BB210B53BB1414B1A78022A03D90022A8
:10A270001A70FEF759FD3E4B1B889BB23BB13D4B1C
:10A280001A78022A03D900221A70FEF787FD3A4B8A
:10A290001B889BB23BB1394B1A78042A03D90022A0
:10A2A0001A70FFF7E1FA364B1A68002A4FD1FFF710
:10A2B000F9F8344C236801332360334B1B78002BAF
:10A2C0004ED0324B1A6801321A601968304A9142F6
:10A2D00004D300221A602F4B01221A702E4A1388D1
:10A2E00001339BB21380138847F22F519BB28B42EC
:10A2F00031D82A4B22689A4204D300232360284B8A
:10A3000001221A7027490B787BB1274A1388013341
:10A310009BB2138013889BB2B3F5FA7F05D3002359
:10A3200013800B701E4B01221A7020490B786BB101
:10A330001F4B1A6801321A6018681E4A904205D9EC
:10A3400000221A60164B0A7001221A7010BD1A689A
:10A35000013A1A60ADE700231380FEF757FEC8E705
:10A360004EF66023C6E700BFF22B0020E12B002051
:10A37000EC2B0020E02B0020E62B0020DF2B002020
:10A380008C03002088030020650300208003002048
:10A3900040771B005C03002098030020C0270900C1
:10A3A0007003002067030020A20300205F03002049
:10A3B00084030020BF270900094A00231370094ABB
:10A3C0003C211170084A1370084A40F25B711180F9
:10A3D000074901220A7007490A70074A136070474B
:10A3E000B0030020AE030020AF030020AC03002028
:10A3F0005F030020700300208C03002030B58F4ADB
:10A400008F4D904C002387B013808F4A2B701380A0
:10A410008E4A237013808E4A13808E4A13808E4A90
:10A4200013808E4A13808E4A13808E4A01A81380AF
:10A430008D4B019303F02CF92B78002B00F0A280B8
:10A44000012B00F0B880894B019301A803F020F99B
:10A4500087480722022103F0F9FA854807220321E1
:10A4600003F0F4FA824812230322042103F000FBD4
:10A470007F4812230322082103F0FAFA7D4B01934F
:10A4800001A803F005F92378012B00F0A980022B25
:10A4900000F0BD80BBB9784807220A2103F0D6FA44
:10A4A000754807220B2103F0D1FA734812230322C7
:10A4B0004FF4806103F0DCFA6F48122303224FF45B
:10A4C000006103F0D5FA00234FF4E132CDE9022315
:10A4D0006A48ADF814304FF44022049203F060FC57
:10A4E0000121102003F01CFC02A9644803F0CCFCFD
:10A4F0000122624840F2255103F030FD01215F48FE
:10A5000003F018FD5E4803F04BFC01214FF40030CE
:10A5100003F0FAFB02A95A4803F0B6FC012258489E
:10A5200040F2255103F01AFD0121554803F002FDC8
:10A53000544803F035FC01214FF4802003F0E4FB84
:10A5400002A9504803F0A0FC01224E4840F22551D8
:10A5500003F004FD01214B4803F0ECFCFEF7C4F8C6
:10A56000494B4A4801241C70494B1C7004F0E8F820
:10A57000484B80B21880484B1C70484B05221A701B
:10A5800007B030BD3A480722092103F05FFA384886
:10A5900007220A2103F05AFA3548122303224FF406
:10A5A000007103F065FA3248122303224FF48061F0
:10A5B00003F05EFA47E730480722062103F046FA27
:10A5C000072211462C4803F041FA2B48122303229C
:10A5D000402103F04DFA2848122303228021E7E7A7
:10A5E0002F4807220A2103F031FA2D4807220B21B8
:10A5F00003F02CFA2A48122303224FF4806103F05F
:10A6000037FA2748122303224FF4006159E72548FF
:10A610000722082103F01AFA22480722092103F031
:10A6200015FA2048122303224FF4807103F020FA18
:10A630001C48122303224FF4007142E7F22B002042
:10A64000D4030020D3030020F02B0020EE2B0020A9
:10A65000EC2B0020EA2B0020E82B0020E62B00202A
:10A66000E42B0020E22B002025020001260200013D
:10A6700000000240270200010004024000100140D7
:10A680000044004000480040DC2B0020190200205C
:10A69000700300209C030020600300205E03002064
:10A6A00000080240000C02401FB53B4B1B78012103
:10A6B000002B45D14FF4001003F026FB374B1B78DD
:10A6C000042243BB3648062103F0C0F93448042273
:10A6D000072103F0BBF9422303224021304803F055
:10A6E000C7F94223032280212D4803F0C1F92D48E8
:10A6F00003F002FA2C492D4B2A48CDE900132C4BCC
:10A7000002934FF48043ADF80C30694603F024FA0D
:10A7100005B05DF804FB2248082103F097F92048B2
:10A720000422092103F092F9422303224FF480719D
:10A730001B4803F09DF9422303224FF40071D3E735
:10A740004FF4800003F0E0FA154804220A2103F0D8
:10A750007DF9134804220B2103F078F910484223B5
:10A7600003224FF4806103F083F9422303224FF464
:10A7700000610B4803F07CF90E4803F0BDF90B4B68
:10A78000094A0C48CDE900230B4B02934FF4804358
:10A79000ADF80C306946B9E7F42B00200100002029
:10A7A0000004024000540040400D03000000FFBFC1
:10A7B00058000004005800406000000438B5084DFF
:10A7C000FFF772FF2C78012124B9064803F02CFA18
:10A7D0002C7038BD044803F027FA0124F8E700BFC5
:10A7E000F42B00200054004000580040034B01228D
:10A7F0001A70034B00221A80704700BFFC2B002008
:10A80000FA2B0020012801D1FFF7F0BF044A0023F2
:10A810001370044A1380044AC2F8A032704700BF84
:10A82000FC2B0020FA2B0020008042420D4B1B78AD
:10A83000BBB10D4A138801339BB2138013889BB2BE
:10A84000C72B0A4B94BF01210021C3F8A012084B6B
:10A8500012881B8892B29BB29A4202D30020FFF763
:10A86000D1BF7047FC2B0020FA2B00200080424211
:10A87000F82B002038B54F4B4F4CD3F810124F4BEC
:10A88000002975D11A780132D2B21A701A78092AC1
:10A8900009D919702378DD0705D4237843F0010323
:10A8A0002370FFF7A3FF434BD3F80C12444B00294E
:10A8B00065D11A780132D2B21A701A78092A09D9E8
:10A8C00019702378980705D4237843F00203237086
:10A8D000FFF78CFF374BD3F808123A4B002955D1BC
:10A8E0001A780132D2B21A701A78092A09D9197065
:10A8F0002378590705D4237843F004032370FFF726
:10A9000075FF314BD3F80002304B012845D11A783E
:10A910000132D2B21A701A78092A25D92C4D002298
:10A920001A702B8801339BB22B8023781A0709D425
:10A93000237843F0080323700A21FFF757FF254AC5
:10A9400000F09EFC2B889BB2B3F5FA7F0CD32B88CA
:10A95000214A9BB20A21012000F092FC00232B80A7
:10A96000FFF744FFFFF728FDFFF760FF207838BDB1
:10A9700000221A70237803F0FE03237093E700226D
:10A980001A70237803F0FD032370A3E700221A70E6
:10A99000237803F0FB032370B3E700221A702378B7
:10A9A0001B07E1D50A4B1A80237803F0F7032370C5
:10A9B000DAE700BF00004242FD2B0020012C0020FE
:10A9C000002C0020FF2B002000004042FE2B002026
:10A9D000F62B0020B0F70008BDF7000810B5184CA2
:10A9E0000121312003F078F91023032204212046AD
:10A9F00003F03EF8102303220821204603F038F824
:10AA0000102319460322204603F032F80D48202374
:10AA10000322012103F02CF8012303220A484FF4FA
:10AA2000807103F025F8094A0023C2F8A032084AD1
:10AA30001370084A1380084B4FF4FA721A8010BD45
:10AA40000010024000000240001402400080424218
:10AA5000FC2B0020FA2B0020F82B00200C4A0D497B
:10AA600010B50024148013889BB2834200D310BD1C
:10AA70000C800B889BB2082B04D9138801339BB23E
:10AA80001380F0E70B8801339BB20B80F1E700BF26
:10AA9000122C0020102C002082B04FF0D842ADF8CC
:10AAA0000600BDF806309BB2ADF80630BDF80630A2
:10AAB0009BB2A2F87E3002B0704782B04FF0D8420D
:10AAC000ADF80600BDF806309BB2ADF80630BDF813
:10AAD00006309BB2A2F8803002B070474FF0D843E6
:10AAE00082B0B3F880309BB2ADF80630BDF80600F6
:10AAF00080B202B0704708B5FFF7CEFF0520FFF720
:10AB0000ADFFBDE80840FFF7E9BF0000034B1A891D
:10AB10004FF0D843A3F87E20704700BF022C0020DE
:10AB200038B50B4D04466889FFF7B6FF200AFFF7DA
:10AB3000C4FFE0B2FFF7C1FFA889FFF7ADFF080A25
:10AB4000FFF7BBFFBDE83840C8B2FFF7B6BF00BF94
:10AB5000022C002010B52D498B79012B07D1072835
:10AB60002BD8DFE800F00D282422202A261E0138E9
:10AB7000062822D8DFE800F017151D1B19041F0056
:10AB8000A0234FF0D8423620A2F87E00A2F88030F1
:10AB90009B060A88488812D5824212D208804A80D1
:10ABA0000FE04023EDE78023EBE76023E9E7202374
:10ABB000E7E7C023E5E7E023E3E70023E1E782429C
:10ABC000ECD84889FFF768FF0020FFF776FFFFF712
:10ABD00074FF0C88013CC4F30F20FFF76EFFE0B256
:10ABE000FFF76BFF8889FFF757FF0020FFF765FF2E
:10ABF000FFF763FF49880139C1F30F20FFF75DFFBD
:10AC0000BDE81040C8B2FFF758BF00BF022C0020BB
:10AC1000124B1B88834270B5044615461DD9104B54
:10AC20001B888B4219D90F4E7089FFF735FF200A18
:10AC3000FFF743FFE0B2FFF740FFB089FFF72CFFBB
:10AC4000080AFFF73AFFC8B2FFF737FF4FF0D843C3
:10AC50003289A3F87E20A3F8805070BD482D0020D3
:10AC6000462D0020022C002010B500281C4C034665
:10AC70000CBF03460123A3714FF02C030CBF4FF40C
:10AC8000F0724FF4A07223814FF02A036381628037
:10AC90004FF02B03A288A38149F281430CBF4FF4EC
:10ACA000A0714FF4F0719A42218002D00020FFF78A
:10ACB00051FFA3790B49002B0CBF4FF4A0724FF446
:10ACC000F0720A8008490CBF4FF4F0734FF4A07380
:10ACD0000B800649D2080A80054A1B09138010BD63
:10ACE000022C0020482D0020462D0020402D002061
:10ACF0003E2D002038B50A4B00211A885C88054695
:10AD000008465443FFF70CFFFFF700FF4FF0D8430E
:10AD1000A14200D138BDA3F880500131F8E700BF4F
:10AD2000022C00202DE9F04185B2541B0134BDF8FE
:10AD300018701E46A4B289B24FF0D848B14201DD66
:10AD4000BDE8F0812846FFF7EBFEFFF7DFFE0023AA
:10AD50009AB2944202D8013189B2EFE7A8F8807024
:10AD60000133F5E7014B1880704700BF4C2D0020E0
:10AD700038B5034C25882280FFF74AFF258038BD6F
:10AD80004C2D00202DE9F0410C4F0D4DDFF83C809B
:10AD90000646002417F8013B2888B8F80010334213
:10ADA0000CBF084B084B1A88FFF7E2FF2B880134D1
:10ADB0000133082C2B80EDD1BDE8F081A0F900080B
:10ADC0003C2D00204A2D00204C2D00203A2D002043
:10ADD0004FF41371A0F52C4090FBF1F39A1C01FB8A
:10ADE00013031C2193FBF1F39BB2042B10B592B219
:10ADF00016D803331C219BB290FBF1F45B0101FBDD
:10AE0000140080B243EA822310286FEA434394BFC0
:10AE1000013002306FEA53439BB280B2184310BD39
:10AE20000A2B01D80533E5E7102B94BF073309330C
:10AE3000E0E70000B0F5304F4FEA102313D3C0B263
:10AE40009F2810D95033DBB2603003EB4302C3B20A
:10AE500003EB4213054A12F8131002EB4302507839
:10AE600040EA012070470020704700BFA8F90008A1
:10AE70001F282DE9F84F13D80D2804D1304B00229C
:10AE80001A80BDE8F88F0A28FBD12E4A2E48118877
:10AE900000884B1C9BB298421380F2D81180EDE7DA
:10AEA000284FDFF8C4903B88284D294E2949DFF808
:10AEB00090801B014FF0100AA9F800304FEA401BA8
:10AEC00005EB40150AEB401A0401B8F80030DB002E
:10AED0000B80214B1B884BBBA5EB0B031B5D337019
:10AEE00016F8010BFFF74EFFB9F800301B4A19495D
:10AEF00001339642A9F8003005F10105E5D1B8F813
:10AF00000030174A013312889BB29A42A8F80030E9
:10AF1000B7D800230C49A8F800303B8809885A1C90
:10AF200092B2914288BF13463B80AAE70D4B1B8823
:10AF30000BB92B78D3E7A5EB0B0313F80A30CEE758
:10AF4000442D0020422D00203E2D002068390108AC
:10AF5000152C00203C2D0020382D0020252C002011
:10AF6000402D0020362D00203A2D00202DE9F84FED
:10AF7000A44B1B78002B44D1FFF75CFFA24BC0F31E
:10AF8000842213F802E0C0F344121A4400F01F00B8
:10AF900092F820600344152E93F8400034D89B4A61
:10AFA000012505FA06F3134207D1994A13422DD120
:10AFB000984A13420CBF00250325BEF1010F02D0B1
:10AFC000BEF1100F24D1021E18BF0122731E5200C1
:10AFD000142B3ED8DFE813F03A003A003A003A006A
:10AFE0003A003A003A003A00D500DB00DB00DB0013
:10AFF000D500D800E100E100E100D800D500DB0079
:10B000003A00FFF7E5FEB9E70025D6E70225D4E7C9
:10B01000002800F0CF80731E142B00F2B080DFE810
:10B0200013F0ED00ED00ED00ED00ED00ED00ED00A2
:10B03000ED00C100C700C700C700C100C100C700C4
:10B04000C700C700C100C100C700ED00002840F0E4
:10B05000D68000237049DFF8E8814FF0010C00270B
:10B060008A46BEF1000F0DD06C4C34F81340744486
:10B07000A4B208EB441414F8079014F80C4081F8BB
:10B0800000904C70B6B1664C91F8009034F81240C4
:10B090003444A4B208EB441414F807B014F80C407C
:10B0A00049EA0B0981F8009091F8019049EA0409F6
:10B0B00081F80190B0B15B4C91F8009034F81540E4
:10B0C0000444A4B208EB441414F807B014F80C407C
:10B0D00049EA0B0981F8009091F8019049EA0409C6
:10B0E00081F801900237202F01F102010CF1020CCE
:10B0F000B7D14D4E4D4C33884D4F4E4D1B012380E3
:10B100004FF000082B881AF81800DB003B80FFF78F
:10B1100039FE238808F101080133B8F1100F2380AC
:10B12000F0D13388DFF81C911B0123804FF0000819
:10B130002B8819F818000133DB003B80FFF722FE53
:10B14000238808F101080133B8F1100F2380EFD1F3
:10B150002B88394A023312889BB29A422B800AD834
:10B16000002336492B80338809885A1C92B29142B9
:10B1700088BF13463380BDE8F88F012269E70322B8
:10B1800067E780B9012365E768B9022362E768B120
:10B1900007235FE7012204235CE700280CBF042398
:10B1A000072357E70322062354E70122032351E72D
:10B1B0000322EDE7A6F109030B2BDED801A252F81A
:10B1C00023F000BFF9B10008ABB10008ABB1000833
:10B1D000ABB10008F9B10008F5B1000895B100085D
:10B1E00095B1000895B10008F5B10008F9B1000863
:10B1F000ABB100080122C8E70122C3E703220523FF
:10B2000028E700BF142C002040F90008A09032006D
:10B210005409010000620C00152C002030F90008D0
:10B2200028F9000820F90008422D00203A2D0020BE
:10B230003C2D0020442D0020402D00203E2D0020DC
:10B24000680C0108162C002070B5054603F078FA4A
:10B250000024C6B2B44200D370BD2A57285D002A2C
:10B26000234604DBFFF704FE0134E4B2F2E72B448B
:10B2700001345B7843EA0020E4B2FFF777FEF3E79E
:10B280000CB413B50A4C04AA208052F8043B094CB4
:10B290000948019201801946204601F01DFE204612
:10B2A000FFF7D2FF02B0BDE8104002B0704700BF08
:10B2B000442D0020352C0020422D0020014608B5E9
:10B2C0003620FFF7E9FB03290ED8DFE801F002077B
:10B2D000090B0A20BDE80840FFF7EFBB2820F9E77B
:10B2E0000920F7E72B20F5E708BD000030B5012164
:10B2F000A1B07A2002F0F0FC0121084602F0F8FC2F
:10B30000D548012303224FF4004102F0B1FBD3489A
:10B3100012230322012102F0ABFBD04812230322A7
:10B32000022102F0A5FBCD4812230322102102F0D6
:10B330009FFBCA4812230322202102F099FBC74831
:10B34000122303224FF4807102F092FBC3481223B0
:10B3500003224FF4007102F08BFBC048122303223A
:10B360004FF4806102F084FBBC48122303224FF4A7
:10B37000804102F07DFBB948122303224FF40041C3
:10B3800002F076FBB64812230322802102F070FB04
:10B39000B348122303224FF4807102F069FBB048D6
:10B3A000122303224FF4007102F062FBAC48122317
:10B3B00003224FF4806102F05BFBA94812230322B1
:10B3C0004FF4006102F054FBA548122303224FF40E
:10B3D000805102F04DFBA248122303224FF400518A
:10B3E00002F046FB9E48122303224FF4804102F0F4
:10B3F0003FFB9B48122303224FF4004102F038FB2D
:10B400009848122303224FF4805102F031FB12239B
:10B41000954803224FF4805102F02AFB8F480C22FA
:10B42000002102F013FB8D480C22012102F00EFBDB
:10B430008A480C22042102F009FB88480C220521CD
:10B4400002F004FB85480C22082102F0FFFA834831
:10B450000C22092102F0FAFA80480C220A2102F09B
:10B46000F5FA7E480C220E2102F0F0FA7B480C22FD
:10B470000F2102F0EBFA7A480C22072102F0E6FADB
:10B4800077480C22082102F0E1FA75480C220921C4
:10B4900002F0DCFA72480C220A2102F0D7FA704856
:10B4A0000C220B2102F0D2FA0C2211466C4802F059
:10B4B000CDFA6B480C220D2102F0C8FA68480C2224
:10B4C0000E2102F0C3FA66480C220F2102F0BEFAE8
:10B4D0000C221146634802F0B9FA0C221146624868
:10B4E00002F0B4FA00240F23CDE903343C23CDE964
:10B4F00005340923CDE90A340823CDE90C3410239F
:10B50000CDE914344FF48053CDE91A344FF480431D
:10B51000CDE91C3403AB06251E9311A80AAB1F937B
:10B52000CDE90744CDE90E44CDE91154CDE91644E7
:10B53000CDE9184409941094139402F04FFD0121B1
:10B54000284602F0ABFD3220FCF746FE4FF0D84310
:10B550000122A3F87E403220A3F88020FCF73CFEB5
:10B560002046FFF7C8FAA0F1FF03404C9BB2B3F5A9
:10B570007F4FA08002D2B0F5134F5AD1D320FFF7EE
:10B580008BFAFFF7ABFAFFF7A9FAFFF7A7FA024623
:10B59000FFF7A4FA40EA022080B249F24133984210
:10B5A000A08046D0BF20FFF777FAFFF797FAFFF7A2
:10B5B00095FAFFF793FAFFF791FA0246FFF78EFA32
:10B5C00040EA022080B246F604039842A08030D0C0
:10B5D000D420FFF761FAFFF781FAFFF77FFAFFF750
:10B5E0007DFA0246FFF77AFA40EA022080B245F27D
:10B5F00010339842A0801CD04FF45A40FFF74CFA09
:10B60000FFF76CFA4FF45B40FFF746FAFFF766FA74
:10B6100001464FF45C40FFF73FFAFFF75FFA40EA5C
:10B62000012080B2B0F5004F45F2105341F02B805D
:10B63000A3800F4BDA6922F00F02DA61DA6922F493
:10B640007062DA61DA6942F00302DA61DA6942F4BF
:10B650000072DA61A2880DE000040240000C024092
:10B66000001002400014024000180240022C00208A
:10B67000000100A045F210339A4240F02487ED20EB
:10B68000FFF70AFA0120FFF718FAFE20FFF715FA74
:10B69000EE20FFF701FADE20FFF70FFA2120FFF777
:10B6A0000CFAF120FFF7F8F90120FFF706FADF2086
:10B6B000FFF7F2F91020FFF700FAC420FFF7ECF9CA
:10B6C0008F20FFF7FAF9C620FFF7E6F90020FFF711
:10B6D000F4F9E220FFF7F1F9FFF7EFF9FFF7EDF9E1
:10B6E000BF20FFF7D9F9AA20FFF7E7F9B020FFF74D
:10B6F000D3F90D20FFF7E1F90020FFF7DEF90D2067
:10B70000FFF7DBF90020FFF7D8F91120FFF7D5F993
:10B710000020FFF7D2F91920FFF7CFF90020FFF73B
:10B72000CCF92120FFF7C9F90020FFF7C6F92D2039
:10B73000FFF7C3F90020FFF7C0F93D20FFF7BDF97F
:10B740000020FFF7BAF95D20FFF7B7F90020FFF7F7
:10B75000B4F95D20FFF7B1F90020FFF7AEF9B12091
:10B76000FFF79AF98020FFF7A8F90020FFF7A5F965
:10B770008B20FFF7A2F90020FFF79FF99620FFF733
:10B780009CF90020FFF799F9B220FFF785F9002016
:10B79000FFF793F9FFF791F90220FFF78EF90020E8
:10B7A000FFF78BF90320FFF788F90020FFF785F9F1
:10B7B000B320FFF771F90020FFF77FF9FFF77DF95C
:10B7C000FFF77BF9FFF779F9FFF777F9FFF775F9DD
:10B7D000FFF773F9FFF771F9FFF76FF9FFF76DF9ED
:10B7E000FFF76BF9FFF769F9FFF767F9FFF765F9FD
:10B7F000FFF763F9FFF761F9FFF75FF9FFF75DF90D
:10B80000FFF75BF9FFF759F9FFF757F9FFF755F91C
:10B81000FFF753F9FFF751F9B420FFF73DF98B20FB
:10B82000FFF74BF90020FFF748F99620FFF745F99D
:10B830000020FFF742F9A120FFF73FF90020FFF7B2
:10B840003CF9B520FFF728F90220FFF736F9002070
:10B85000FFF733F90320FFF730F90020FFF72DF948
:10B860000420FFF72AF90020FFF727F9B620FFF799
:10B8700013F90020FFF721F9FFF71FF9B720FFF7B1
:10B880000BF90020FFF719F9FFF717F93F20FFF731
:10B8900014F90020FFF711F95E20FFF70EF90020E0
:10B8A000FFF70BF96420FFF708F90020FFF705F90F
:10B8B0008C20FFF702F90020FFF7FFF8AC20FFF71C
:10B8C000FCF80020FFF7F9F8DC20FFF7F6F800207D
:10B8D000FFF7F3F87020FFF7F0F80020FFF7EDF81E
:10B8E0009020FFF7EAF80020FFF7E7F8EB20FFF7DA
:10B8F000E4F80020FFF7E1F8DC20FFF7DEF8002095
:10B90000FFF7DBF8B820FFF7C7F80020FFF7D5F8FE
:10B91000FFF7D3F8FFF7D1F8FFF7CFF8FFF7CDF82F
:10B92000FFF7CBF8FFF7C9F8FFF7C7F8BA20FFF722
:10B93000B3F82420FFF7C1F80020FFF7BEF8FFF7A7
:10B94000BCF8FFF7BAF8C120FFF7A6F82020FFF7F0
:10B95000B4F80020FFF7B1F85420FFF7AEF800204C
:10B96000FFF7ABF8FF20FFF7A8F80020FFF7A5F8D6
:10B97000C220FFF791F80A20FFF79FF80020FFF799
:10B980009CF80420FFF799F80020FFF796F8C320F1
:10B99000FFF782F83C20FFF790F80020FFF78DF8C2
:10B9A0003A20FFF78AF80020FFF787F83920FFF7E1
:10B9B00084F80020FFF781F83720FFF77EF8002099
:10B9C000FFF77BF83C20FFF778F80020FFF775F8C9
:10B9D0003620FFF772F80020FFF76FF83220FFF7EC
:10B9E0006CF80020FFF769F82F20FFF766F80020B9
:10B9F000FFF763F82C20FFF760F80020FFF75DF8F1
:10BA00002920FFF75AF80020FFF757F82620FFF704
:10BA100054F80020FFF751F82420FFF74EF80020DB
:10BA2000FFF74BF82420FFF748F80020FFF745F810
:10BA30002320FFF742F80020FFF73FF83C20FFF7F4
:10BA40003CF80020FFF739F83620FFF736F80020E1
:10BA5000FFF733F83220FFF730F80020FFF72DF81A
:10BA60002F20FFF72AF80020FFF727F82C20FFF7F8
:10BA700024F80020FFF721F82920FFF71EF8002006
:10BA8000FFF71BF82620FFF718F80020FFF715F83E
:10BA90002420FFF712F80020FFF70FF82420FFF70B
:10BAA0000CF80020FFF709F82320FFF706F8002024
:10BAB000FFF703F8C420FEF7EFFF6220FEF7FDFF5B
:10BAC0000020FEF7FAFF0520FEF7F7FF0020FEF743
:10BAD000F4FF8420FEF7F1FF0020FEF7EEFFF020D8
:10BAE000FEF7EBFF0020FEF7E8FF1820FEF7E5FF6A
:10BAF0000020FEF7E2FFA420FEF7DFFF0020FEF7A4
:10BB0000DCFF1820FEF7D9FF0020FEF7D6FF5020FB
:10BB1000FEF7D3FF0020FEF7D0FF0C20FEF7CDFF8D
:10BB20000020FEF7CAFF1720FEF7C7FF0020FEF730
:10BB3000C4FF9520FEF7C1FF0020FEF7BEFFF320F3
:10BB4000FEF7BBFF0020FEF7B8FFE620FEF7B5FFCB
:10BB50000020FEF7B2FFC520FEF79EFF3220FEF761
:10BB6000ACFF0020FEF7A9FF4420FEF7A6FF00204F
:10BB7000FEF7A3FF6520FEF7A0FF0020FEF79DFF64
:10BB80007620FEF79AFF0020FEF797FF8820FEF749
:10BB900094FF0020FEF791FFC620FEF77DFF2020D6
:10BBA000FEF78BFF0020FEF788FF1720FEF785FFCA
:10BBB0000020FEF782FF0120FEF77FFF0020FEF746
:10BBC0007CFFC720FEF768FF0020FEF776FFFEF738
:10BBD00074FFFEF772FFFEF770FFC820FEF75CFFF0
:10BBE0000020FEF76AFFFEF768FFFEF766FFFEF72C
:10BBF00064FFC920FEF750FF0020FEF75EFFFEF74E
:10BC00005CFFFEF75AFFFEF758FFFEF756FFFEF700
:10BC100054FFFEF752FFFEF750FFFEF74EFFFEF710
:10BC20004CFFFEF74AFFFEF748FFFEF746FFFEF720
:10BC300044FFFEF742FFFEF740FFE020FEF72CFF37
:10BC40001620FEF73AFF0020FEF737FF1C20FEF714
:10BC500034FF0020FEF731FF2120FEF72EFF0020E9
:10BC6000FEF72BFF3620FEF728FF0020FEF725FF0A
:10BC70004620FEF722FF0020FEF71FFF5220FEF7AE
:10BC80001CFF0020FEF719FF6420FEF716FF0020BE
:10BC9000FEF713FF7A20FEF710FF0020FEF70DFFDE
:10BCA0008B20FEF70AFF0020FEF707FF9920FEF722
:10BCB00004FF0020FEF701FFA820FEF7FEFE002093
:10BCC000FEF7FBFEB920FEF7F8FE0020FEF7F5FEBA
:10BCD000C420FEF7F2FE0020FEF7EFFECA20FEF7BA
:10BCE000ECFE0020FEF7E9FED220FEF7E6FE002083
:10BCF000FEF7E3FED920FEF7E0FE0020FEF7DDFEB2
:10BD0000E020FEF7DAFE0020FEF7D7FEF320FEF774
:10BD1000D4FE0020FEF7D1FEE120FEF7BDFE162086
:10BD2000FEF7CBFE0020FEF7C8FE1C20FEF7C5FE86
:10BD30000020FEF7C2FE2220FEF7BFFE0020FEF725
:10BD4000BCFE3620FEF7B9FE0020FEF7B6FE452009
:10BD5000FEF7B3FE0020FEF7B0FE5220FEF7ADFE68
:10BD60000020FEF7AAFE6420FEF7A7FE0020FEF7E3
:10BD7000A4FE7A20FEF7A1FE0020FEF79EFE8B2097
:10BD8000FEF79BFE0020FEF798FE9920FEF795FE39
:10BD90000020FEF792FEA820FEF78FFE0020FEF79F
:10BDA0008CFEB920FEF789FE0020FEF786FEC42037
:10BDB000FEF783FE0020FEF780FECA20FEF77DFE20
:10BDC0000020FEF77AFED220FEF777FE0020FEF775
:10BDD00074FED820FEF771FE0020FEF76EFEE02014
:10BDE000FEF76BFE0020FEF768FEF320FEF765FE0F
:10BDF0000020FEF762FEE220FEF74EFE0520FEF771
:10BE00005CFE0020FEF759FE0B20FEF756FE0020D8
:10BE1000FEF753FE1B20FEF750FE0020FEF74DFEFE
:10BE20003420FEF74AFE0020FEF747FE4420FEF7CE
:10BE300044FE0020FEF741FE4F20FEF73EFE0020AC
:10BE4000FEF73BFE6120FEF738FE0020FEF735FED0
:10BE50007920FEF732FE0020FEF72FFE8820FEF745
:10BE60002CFE0020FEF729FE9720FEF726FE00207C
:10BE7000FEF723FEA620FEF720FE0020FEF71DFEA3
:10BE8000B720FEF71AFE0020FEF717FEC220FEF7CD
:10BE900014FE0020FEF711FEC720FEF70EFE002064
:10BEA000FEF70BFED120FEF708FE0020FEF705FE90
:10BEB000D620FEF702FE0020FEF7FFFDDD20FEF794
:10BEC000FCFD0020FEF7F9FDF320FEF7F6FD002053
:10BED000FEF7F3FDE320FEF7DFFD0520FEF7EDFDA5
:10BEE0000020FEF7EAFD0A20FEF7E7FD0020FEF73E
:10BEF000E4FD1C20FEF7E1FD0020FEF7DEFD33200F
:10BF0000FEF7DBFD0020FEF7D8FD4420FEF7D5FD4F
:10BF10000020FEF7D2FD5020FEF7CFFD0020FEF7F7
:10BF2000CCFD6220FEF7C9FD0020FEF7C6FD78209B
:10BF3000FEF7C3FD0020FEF7C0FD8820FEF7BDFD23
:10BF40000020FEF7BAFD9720FEF7B7FD0020FEF7B0
:10BF5000B4FDA620FEF7B1FD0020FEF7AEFDB72030
:10BF6000FEF7ABFD0020FEF7A8FDC220FEF7A5FD01
:10BF70000020FEF7A2FDC720FEF79FFD0020FEF780
:10BF80009CFDD120FEF799FD0020FEF796FDD520FF
:10BF9000FEF793FD0020FEF790FDDD20FEF78DFDFE
:10BFA0000020FEF78AFDF320FEF787FD0020FEF754
:10BFB00084FDE420FEF770FD0120FEF77EFD0020E9
:10BFC000FEF77BFD0120FEF778FD0020FEF775FDF2
:10BFD0000220FEF772FD0020FEF76FFD2A20FEF71B
:10BFE0006CFD0020FEF769FD3C20FEF766FD002099
:10BFF000FEF763FD4B20FEF760FD0020FEF75DFDC0
:10C000005D20FEF75AFD0020FEF757FD7420FEF775
:10C0100054FD0020FEF751FD8420FEF74EFD002068
:10C02000FEF74BFD9320FEF748FD0020FEF745FD8F
:10C03000A220FEF742FD0020FEF73FFDB320FEF7F1
:10C040003CFD0020FEF739FDBE20FEF736FD002046
:10C05000FEF733FDC420FEF730FD0020FEF72DFD76
:10C06000CD20FEF72AFD0020FEF727FDD320FEF7A6
:10C0700024FD0020FEF721FDDD20FEF71EFD00203F
:10C08000FEF71BFDF320FEF718FD0020FEF715FD5F
:10C09000E520FEF701FD0020FEF70FFDFEF70DFD88
:10C0A000FEF70BFDFEF709FD0220FEF706FD00205E
:10C0B000FEF703FD2920FEF700FD0020FEF7FDFC42
:10C0C0003C20FEF7FAFC0020FEF7F7FC4B20FEF7C1
:10C0D000F4FC0020FEF7F1FC5D20FEF7EEFC0020F2
:10C0E000FEF7EBFC7420FEF7E8FC0020FEF7E5FC11
:10C0F0008420FEF7E2FC0020FEF7DFFC9320FEF731
:10C10000DCFC0020FEF7D9FCA220FEF7D6FC0020C4
:10C11000FEF7D3FCB320FEF7D0FC0020FEF7CDFCE9
:10C12000BE20FEF7CAFC0020FEF7C7FCC420FEF7C5
:10C13000C4FC0020FEF7C1FCCD20FEF7BEFC0020B1
:10C14000FEF7BBFCD320FEF7B8FC0020FEF7B5FCE1
:10C15000DC20FEF7B2FC0020FEF7AFFCF320FEF778
:10C16000ACFC0020FEF7A9FCE620FEF795FC1120B0
:10C17000FEF7A3FC0020FEF7A0FC3420FEF79DFC98
:10C180000020FEF79AFC5620FEF797FC0020FEF7F1
:10C1900094FC7620FEF791FC0020FEF78EFC7720C1
:10C1A000FEF78BFC0020FEF788FC6620FEF785FC7E
:10C1B0000020FEF782FC8820FEF77FFC0020FEF7BF
:10C1C0007CFC9920FEF779FC0020FEF776FCBB2072
:10C1D000FEF773FC0020FEF770FC9920FEF76DFC63
:10C1E0000020FEF76AFC6620FEF767FC0020FEF7E1
:10C1F00064FC5520FEF761FC0020FEF75EFC552034
:10C20000FEF75BFC0020FEF758FC4520FEF755FCCE
:10C210000020FEF752FC4320FEF74FFC0020FEF703
:10C220004CFC4420FEF749FC0020FEF746FCE720CA
:10C23000FEF732FC3220FEF740FC0020FEF73DFC0A
:10C240005520FEF73AFC0020FEF737FC7620FEF77B
:10C2500034FC0020FEF731FC6620FEF72EFC0020A7
:10C26000FEF72BFC6720FEF728FC0020FEF725FCDC
:10C270006720FEF722FC0020FEF71FFC8720FEF758
:10C280001CFC0020FEF719FC9920FEF716FC00208C
:10C29000FEF713FCBB20FEF710FC0020FEF70DFCA0
:10C2A0009920FEF70AFC0020FEF707FC7720FEF736
:10C2B00004FC0020FEF701FC4420FEF7FEFB0020FA
:10C2C000FEF7FBFB5620FEF7F8FB0020FEF7F5FB20
:10C2D0002320FEF7F2FB0020FEF7EFFB3320FEF7F2
:10C2E000ECFB0020FEF7E9FB4520FEF7E6FB002013
:10C2F000FEF7E3FBE820FEF7CFFB0020FEF7DDFBB7
:10C30000FEF7DBFB9920FEF7D8FB0020FEF7D5FBFC
:10C310008720FEF7D2FB0020FEF7CFFB8820FEF738
:10C32000CCFB0020FEF7C9FB7720FEF7C6FB002000
:10C33000FEF7C3FB6620FEF7C0FB0020FEF7BDFB47
:10C340008820FEF7BAFB0020FEF7B7FBAA20FEF715
:10C35000B4FB0020FEF7B1FBBB20FEF7AEFB0020D4
:10C36000FEF7ABFB9920FEF7A8FB0020FEF7A5FB2C
:10C370006620FEF7A2FB0020FEF79FFB5520FEF78C
:10C380009CFB0020FEF799FB5520FEF796FB002052
:10C39000FEF793FB4420FEF790FB0020FEF78DFB99
:10C3A0004420FEF78AFB0020FEF787FB5520FEF7AE
:10C3B00084FB0020FEF781FBE920FEF76DFBAA203D
:10C3C000FEF77BFB0020FEF778FBFEF776FBFEF71F
:10C3D00074FBFEF761FBAA20FEF76FFBCF20FEF790
:10C3E0005BFB0020FEF769FBFEF767FBFEF765FBD2
:10C3F000FEF763FBFEF761FBFEF75FFBFEF75DFBFD
:10C40000FEF75BFBFEF759FBFEF757FBFEF755FB0C
:10C41000FEF753FBFEF751FBFEF74FFBFEF74DFB1C
:10C42000FEF74BFBFEF749FBF020FEF735FB002043
:10C43000FEF743FB5020FEF740FB0020FEF73DFBDC
:10C44000FEF73BFBFEF739FBF320FEF725FB002050
:10C45000FEF733FBF920FEF71FFB0620FEF72DFB4E
:10C460001020FEF72AFB2920FEF727FB0020FEF70D
:10C4700024FB3A20FEF710FB5520FEF71EFB11208F
:10C48000FEF70AFB6420FBF7A7FE2920FEF704FB5A
:10C490003520FEF701FB0020FEF70FFB5120FEF7D1
:10C4A000FBFAFF20FEF709FB5320FEF7F5FA2C20DC
:10C4B000FEF703FB5520FEF7EFFA8220FEF7FDFAA8
:10C4C0002C20FEF7E9FAA28849F281439A4240F013
:10C4D00093800120FEF7E0FA7820FBF77DFE112023
:10C4E000FEF7DAFA7820FBF777FE3A20FEF7D4FA67
:10C4F0005520FEF7E2FAC220FEF7CEFA4420FEF7FE
:10C50000DCFAC520FEF7C8FA0020FEF7D6FAFEF7DF
:10C51000D4FAFEF7D2FAFEF7D0FAE020FEF7BCFA22
:10C520000F20FEF7CAFA1F20FEF7C7FA1C20FEF7FD
:10C53000C4FA0C20FEF7C1FA0F20FEF7BEFA08205D
:10C54000FEF7BBFA4820FEF7B8FA9820FEF7B5FAD6
:10C550003720FEF7B2FA0A20FEF7AFFA1320FEF7F3
:10C56000ACFA0420FEF7A9FA1120FEF7A6FA0D2076
:10C57000FEF7A3FA0020FEF7A0FAE120FEF78CFAFE
:10C580000F20FEF79AFA3220FEF797FA2E20FEF7D8
:10C5900094FA0B20FEF791FA0D20FEF78EFA052093
:10C5A000FEF78BFA4720FEF788FA7520FEF785FA2A
:10C5B0003720FEF782FA0620FEF77FFA1020FEF7FA
:10C5C0007CFA0320FEF779FA2420FEF776FA202081
:10C5D000FEF773FA0020FEF770FA2020FEF75CFAEF
:10C5E0003620FEF759FA4820FEF767FA2920FEF7B1
:10C5F00053FA9620FBF7F0FD0020FEF735FBA288EA
:10C6000049F281439A4202D10020FEF757FE354B92
:10C6100035490122C3F8BC22A379002B0CBF4FF48B
:10C62000A0724FF4F0720A8030490CBF4FF4F073DF
:10C630004FF4A0730B802E4900250D802D490D80ED
:10C640002D490D802D490D802D490D702D49D208A1
:10C650000A802D4A1B09138000F054FC2B4B4FF627
:10C66000FF721A802A4B28461D80FEF743FB638821
:10C67000019323880093A388264A29462846FEF77B
:10C68000FFFD21B030BD9842A0803EF4D2AFA12082
:10C69000FEF702FAFEF722FAFEF720FA0246FEF74C
:10C6A0001DFA40EA022045F2617380B2984241F6D9
:10C6B00063133EF4BDAF9842A0803EF4BAAFBF20F2
:10C6C000FEF7EAF9FEF70AFAFEF708FAFEF706FAAD
:10C6D000FEF704FA0246FEF701FA40EA0220A080C3
:10C6E000FEF7A7BF00804042482D0020462D0020C5
:10C6F000442D0020422D0020362D0020382D002012
:10C70000142C0020402D00203E2D00204C2D002018
:10C710004A2D0020C8F700080B6803F8010BC0B2CF
:10C720000B607047002070472DE9F04F91B00E4626
:10C7300001901C4690464FF0000916F8015B4DB978
:10C74000A36A01989847002814BF2846484611B0AC
:10C75000BDE8F08F252D07D0636A019928469847D8
:10C7600009F10109454616E14FF0000A16E02D2AAD
:10C770000DD0302A43D00E4600230A20A2F130010A
:10C78000092920D816F8012B00FB0313F6E72AF439
:10C79000807A2AF0010A4AF0010A0E46314611F861
:10C7A000012B2B2A22D0E2D8202A22D0232A23D0E0
:10C7B0002A2AE0D158F8043B0A78002BBCBF5B4220
:10C7C0008AF0010A02362E2A23EAE37723D132784F
:10C7D0002A2A17D0013600210A25A2F130000928A3
:10C7E00014D816F8012B05FB0101F6E74AF0020AFE
:10C7F000D3E74AF0040AD0E74AF0080ACDE74AF442
:10C80000807ACAE758F8041B727802360029A4BF60
:10C810004AF0100AA16022F020014C292ED1327872
:10C8200002F0DF014C2903BF72784AF0400A023659
:10C83000013618BF4AF0200A782A6FDC572A24DC18
:10C84000002A00F0AA8022F00201452966D11AF0E0
:10C85000100F04BF0623A3601AF0020F4AF4007100
:10C8600008F1040540F0E681B648B74B1AF0040F12
:10C8700018BF034663608A46002339E1682A04BF73
:10C8800016F8012B4AF0800AD6E7A2F158012029B8
:10C8900044D801A050F821F05BCA00081DC9000867
:10C8A0001DC900081DC900081DC900081DC90008D0
:10C8B0001DC900081DC900081DC900081DC90008C0
:10C8C0001DC900081DC90008D3CB00084FC80008C7
:10C8D0004FC800084FC800081DC90008D3CB000886
:10C8E0001DC900081DC900081DC900081DC9000890
:10C8F0009FC9000869CB0008D1CA00081DC90008FB
:10C900001DC90008C7C900081DC900089BCB000845
:10C910001DC900081DC9000899CA000845461AF03B
:10C92000010B55F8042B029207F1FF3818D11AF4C5
:10C93000807F0CBF4FF0200A4FF0300AB8F1010899
:10C94000626A18D5012F3A46B8BF0122013A002B7E
:10C95000C7F101089144D8BF4FF00008BA1E9044B7
:10C96000DDE90110636A984709F10109BBF1000F85
:10C9700011D0474609E00199039350469047039B25
:10C98000DCE7636A019920209847013FF9D5B8F1A7
:10C99000000FA8BFC144A846CFE6013EE2E61AF068
:10C9A000800FD8F8003008F1040502D0A3F80090F9
:10C9B000F1E71AF0400F1ABF4FEAE972C3E900929B
:10C9C000C3F80090E7E745461AF0100F55F8048BBE
:10C9D0000AD0A3684FF0000B9B4509DA18F80B202A
:10C9E00032B10BF1010BF7E7404601F0A9FE834697
:10C9F0001AF00103A7EB0B0702930ED11AF4807F04
:10CA00000CBF202330230393BA46BAF1010A0ED596
:10CA100027EAE773013F9944FF1A08EB0B0AC24566
:10CA20000AD1029BD944002BB5D0B8460EE0636A08
:10CA3000019903989847E8E7636A019918F8010B90
:10CA40009847ECE7636A019920209847B8F10108FC
:10CA5000F8D5002FA8BFB9449DE71AF0400F1DBFBD
:10CA600008F1070828F00705F5E80201454618BF58
:10CA7000C4E90E01354908BF55F8043B3448E1626A
:10CA800018BF002330491AF0800F18BF9BB21AF06C
:10CA9000080F18BF014695E01AF0400F1DBF08F1BE
:10CAA000070828F00705F5E80201454614BFC4E968
:10CAB0000E0155F8043B2749E16218BF00231AF024
:10CAC000800F18BF9BB2204923481AF0080FE0E7F7
:10CAD0002248204945461AF0080F55F8043BE16208
:10CAE000194918BF014661600821A1604AF0100A87
:10CAF0004FF0FF311AF4047FC4E9031104BF012190
:10CB0000A160582A2763C4F800A000F09580643A19
:10CB1000142A0DD81248012191400840002840F005
:10CB200030811048014040F087800B2A00F0FF80E0
:10CB300042F63063ADF8203030238DF822304FF0CC
:10CB4000030890E0C9F4000821F60008F1F7000896
:10CB5000E3F7000802F80008E6F70008E9F7000824
:10CB600021000200001010001AF0400F1DBF08F154
:10CB7000070828F00705F5E8020145461ABFC4E991
:10CB80000E01002355F8043BB049B1481AF0800F5C
:10CB900018BF9BB21AF0080F7BE71AF0400F1DBFB9
:10CBA00008F1070828F00705F5E8020145461ABF15
:10CBB000C4E90E01002355F8043BA4491AF0800F84
:10CBC00018BF9BB21AF0100F616091D02AF4807ADE
:10CBD0008EE71AF0400F1DD008F1070828F007086B
:10CBE0004546D8F8043055F8081B002B0ADBC4E989
:10CBF0000E1300231AF0020F1AD1944995481AF027
:10CC0000040F46E7494263EB4303C4E90E130023D4
:10CC10009149D7E745461AF0800F55F8041B18BF15
:10CC200009B281EAE1730029A3EBE173E2DAEFE7ED
:10CC30008A49C7E7894B1DE61AF040080BD108AABC
:10CC40008BB103F00F01E06A415C02F8011B08F1AF
:10CC500001081B09F4E7D4E90E3108AA4FF00008D7
:10CC600053EA010055D11AF40073059308BFA36875
:10CC7000606806BFA3EB080323EAE3730023029373
:10CC800001F05EFD029B3F1A4344A7EB030B0AF041
:10CC90000103049340F201131AEA030F00F0A58088
:10CCA0000027636819460A4612F8010B0390002812
:10CCB00040F09D80FB1ACF18049B8BB91AF4807F3B
:10CCC0000CBF202330230693DA46BAF1010A40F163
:10CCD00098802BEAEB730BF1FF321F44A2EB030B9E
:10CCE000059B002B40F0AB80DDF808A0BAF1010AEB
:10CCF00080F0C180029B3B4408EB0307B8F10108B8
:10CD0000C0F0A08008AA636A019912F80800984749
:10CD1000F4E703F00F0CE06A1B0910F80C0002F8AE
:10CD2000010B43EA017308F10108090998E71AF0B9
:10CD300040080AD108AA7BB103F00701303102F89C
:10CD4000011B08F10108DB08F5E7D4E90E2008AB68
:10CD5000884652EA000106D11AF0080F83D0A36872
:10CD6000013BA3607FE702F0070CE16AD20811F8EB
:10CD70000C1003F8011B42EA407208F10108C008D8
:10CD8000E7E71AF040080FD108AA0A21002B3FF468
:10CD90006AAFB3FBF1F001FB1033303302F8013B13
:10CDA00008F101080346F1E7D4E90E010DF1200B6B
:10CDB0004FF0000850EA01033FF455AF0A22002368
:10CDC00002F0C8F930320BF8012B08F10108F1E745
:10CDD000636A019920209847013FF9D52BEAEB7748
:10CDE0000BF1FF33A3EB070B5BE75F46F4E7CDE9FD
:10CDF00006320199636A03989847079A069B114681
:10CE000051E7636A0199069898475EE7039B08AA71
:10CE1000D05C3C280BD03E2827D0636A0199984704
:10CE2000013709E0636A0199302001379847E368C8
:10CE3000013B002BE360F5DA039B01330393039B73
:10CE40009845E3D1049B3BBBB944A4E521F6000817
:10CE5000EBF70008C9F40008EFF70008EDF7000849
:10CE6000636A01993020013798472369013B002B01
:10CE70002361F5DAE0E7636A01993020984735E7E6
:10CE8000636A019920209847B8F10108F8D5BBF1F1
:10CE9000000FA8BF5F44D7E7D846F5E70EB410B53A
:10CEA00093B015AA0A4B52F8041B0B93094B0C9331
:10CEB000CDE90002002402AB68460A94FFF734FC77
:10CEC000009B1C7013B0BDE8104003B0704700BF5A
:10CED00019C7000825C7000810B592B0074B0B937F
:10CEE000074B0C930024019002AB01A80A94FFF7B2
:10CEF0001BFC019B1C7012B010BD00BF19C70008BD
:10CF000025C700082DE9F04F284B29491E88294BD9
:10CF10001F88294B87B04FF4F812CDE902236FF038
:10CF20001F03CDE904134FEA560B4FEA570A4FF09F
:10CF3000000800F085FE06AA08F0070302EB430391
:10CF400008F1010833F8100CFDF70CFF01F0B8F8F8
:10CF500090FBF6F303FB160401F0B2F890FBF7F335
:10CF600003FB170501F0ACF8814601F0A9F899FB25
:10CF7000F6F1A4EB0B0406FB1192A5EB0A050F4991
:10CF800090FBF7F3A4B2ADB203FB17000988009140
:10CF90002B1822441BB212B229B220B2FDF7C2FEF6
:10CFA000B8F57A7FC5D107B0BDE8F08F482D0020D5
:10CFB00000F81FF8462D0020E007FF074C2D002049
:10CFC00008B51048012100F0DBFE01280ED10E4902
:10CFD00091F900300A78002B08DA02F0EF0312F022
:10CFE0000F0209D00D2A0AD801330B70BDE80840A2
:10CFF0000448012100F0CFBE43F04003F4E703F002
:10D000007003F2E700000140562D002070B52F4854
:10D01000022100F0B5FE012810D12D4B2D4CD3F884
:10D0200020528DB12948022100F0A0FE274800219E
:10D0300000F09AFE237843F010032370BDE870409F
:10D040002248022100F0A7BE2048234E00F096FEA1
:10D05000294630801D4800F089FE2278D3060CD581
:10D060003388160626D56FF496701918B1F5F97F36
:10D0700007D81A4A13685B001360237823F0100363
:10D08000DBE76FF4AF615918B1F5C77F05D8134AD4
:10D0900013685B0043F00103EEE7A3F69903B3F5D1
:10D0A000C77FEAD80E490B7822F00F0201330B70CC
:10D0B0002270E2E7A3F58353093BB3F5F97F9FBFE5
:10D0C000074B62F07F0222701D70D6E7000001401E
:10D0D00000004042562D0020542D0020502D0020ED
:10D0E000572D00200000000007EE900AF8EE677A46
:10D0F00008B517EE900A01F0F3FC0FA3D3E9002363
:10D1000001F046FD0EA3D3E9002301F089FB0EA335
:10D11000D3E9002301F066FE054B002201F082FBFB
:10D12000044B002201F034FD01F0CCFF00B208BD39
:10D1300000002E40000059406666666666664A3FFB
:10D1400052B81E85EB51E83F7B14AE47E17A643F4D
:10D15000F0B501218BB0202000F0BEFD03231A465C
:10D160003C483D4F3D4E802100F082FC03231A468F
:10D170003B48202100F07CFC01214FF4E06000F0EE
:10D18000CFFD01214FF4807000F0E2FD00214FF44B
:10D19000807000F0DDFD01214FF4007000F0D8FD3B
:10D1A00000214FF4007000F0D3FD01214FF48060A6
:10D1B00000F0CEFD00214FF4806000F0C9FD002595
:10D1C0004FF4803368460124CDE90053CDE9025580
:10D1D00000F0BAFA04950695089504A9214DADF81A
:10D1E000144038468DF8244000F088FA04A93046EF
:10D1F00000F084FA04A9284600F080FA204600F0E6
:10D20000C1FA2146384600F0B3FA2146304600F014
:10D21000AFFA2146284600F0ABFA234622463846AC
:10D22000102100F0BBFA234622463046052100F0CB
:10D23000B5FA234622460521284600F0AFFA3846C3
:10D2400000F0F2FA304600F0EFFA284600F0ECFA6F
:10D250000BB0F0BD0014024000200140002101404D
:10D2600000000240002201402DE9F341574802210D
:10D2700000F0E2FA00282DD0554C544800F0D9FABD
:10D280002368544A18442060138801339BB21380EA
:10D2900013889BB2632B1AD94F49002515800A8841
:10D2A00023686420B3FBF0F346F226709BB243433D
:10D2B000DB13072012FB003343F3CF030B800B88F3
:10D2C000464A1BB205210120FDF7DAFF25603F48E1
:10D2D00000F0AAFA4248022100F0AEFA00283AD043
:10D2E000404D3F4800F0A5FA2B683F4A184428609B
:10D2F000138801339BB2138013889BB2632B27D909
:10D30000DFF8008100261680B8F8004028686427FE
:10D31000B0FBF7F080B2FFF7E7FE072314FB03042E
:10D3200044F3CF04A8F80040B8F80030B8F8002063
:10D3300012B292FBF7F107FB112212B200921BB25C
:10D340002A4A93FBF7F304210120FDF799FF2E6091
:10D35000234800F069FA2648022100F06DFA0028FF
:10D3600030D0244C224800F064FA2368224A184442
:10D370002060138801339BB2138013889BB2632B08
:10D380001AD91E49002515800A8823686420B3FB3A
:10D39000F0F346F226709BB24343DB13072012FBE7
:10D3A000003343F3CF030B800B88154A1BB20321D4
:10D3B0000120FDF765FF25600D4802B0BDE8F04192
:10D3C00000F032BA02B0BDE8F08100BF0022014097
:10D3D000682D0020702D00205A2D002013F8000821
:10D3E00000200140642D00206E2D002024F800084C
:10D3F00000210140602D00206C2D00205C2D0020BC
:10D400003FF80008582D0020D0B5044601F046FB37
:10D4100040F6E4439C4228BF1C460022184B01F012
:10D42000E1FC184B002201F0B3FB11A3D3E9002368
:10D4300001F0D8FC10A3D3E9002306460F4601F003
:10D4400037FE10B10CA7D7E900673946304601F026
:10D4500061FE81B2002000F019FA23460A4A062133
:10D460000120FDF70DFF094B1C80D0BDAFF30080FC
:10D470006666666666660A400000000000FEAF4011
:10D4800000408F400000B04053F80008722D00208B
:10D490001FB50121084600F01FFC01214FF000508C
:10D4A00000F032FC032300241A460B48102100F040
:10D4B000DFFA0223694620460393CDE90044029433
:10D4C00000F0C0F92046012100F0D2F921462046A3
:10D4D00000F0DCF904B010BD00000240074B084A20
:10D4E0001A60BFF34F8F0749074BCA6802F4E06226
:10D4F0001343CB60BFF34F8F00BFFDE7742D0020B7
:10D50000080455AA00ED00E00400FA050F49104890
:10D51000814210B50AD00F4BDA1C121A22F0030216
:10D52000C41EA34238BF002201F058F80A4B0B4832
:10D53000DA1C121AC11E22F00302994288BF00228F
:10D54000BDE81040002100F0DBBD00BF68410108CC
:10D550000000002008020020B02E00200802002059
:10D56000684620F007018D4608B5FFF7CFFFDFF8CA
:10D570001400016841F47001016000F005F8FAF749
:10D58000EFFEFEE788ED00E0364AD2F8883043F43B
:10D590007003C2F88830344B1A68002142F001024F
:10D5A0001A6099601A6822F0847222F480321A603C
:10D5B0002E4A5A601A6882B022F480221A60D9601A
:10D5C000009101911A6842F480321A601A6802F4DC
:10D5D00000320192009A01320092019A1AB9009A1F
:10D5E000B2F5A04FF2D11B6813F4003318BF01232A
:10D5F0000193019B012B2ED11B4B1D491A6C42F04C
:10D6000080521A640A6842F440420A609A689A603A
:10D610009A6842F400429A609A6842F4A0529A6072
:10D62000144A5A601A6842F080721A601A689201AD
:10D63000FCD5114A40F2057111609A6822F003028C
:10D640009A609A6842F002029A60074A936803F06F
:10D650000C03082BFAD1034B4FF000629A6002B022
:10D66000704700BF00ED00E0003802401030002499
:10D670000070004008544007003C0240034B40F05B
:10D68000BF6040F40030D860704700BF00ED00E09C
:10D69000017870B501F01F0301269E40C3784D0943
:10D6A000CBB10F4BDA684378D243C2F30222C2F106
:10D6B0000404E4B2A340DCB20F2343FA02F28378FD
:10D6C0001340084A23431B011144DBB281F80033A5
:10D6D00042F8256070BD034B203543F82560F9E71B
:10D6E00000ED00E000E100E021F06041024B21F09C
:10D6F0007F0108439860704700ED00E043680A79B5
:10D7000023F0407323F4807343EA02230A6813432F
:10D710004360D1E9032313438A6810B51343846837
:10D72000084A224013434A7943EA420383600A7D50
:10D73000C36A013A23F47003D2B243EA0253C362CC
:10D7400010BD00BFFDF7FFC0D0E90032064910B59B
:10D7500013434C68054A2240134382681343C2684E
:10D7600013434B6010BD00BF00230140E030FCFFBD
:10D77000836819B143F001038360704723F001030C
:10D78000FAE70000044B5A6818B142F400025A60EC
:10D79000704722F40002FAE700230140092970B51E
:10D7A0001AD9A1F10A04C56804EB44040726A6406F
:10D7B00025EA060503FA04F42C43C460062A17D8A8
:10D7C000541E436B04EB84041F22A24023EA02028E
:10D7D000A1400A43426370BD056901EB410607247D
:10D7E000B44025EA040503FA06F42C430461E5E796
:10D7F0000C2A0BD8D31F046B03EB83031F229A4020
:10D8000024EA020299400A430263E4E7A2F10D030D
:10D81000C46A03EB83031F229A4024EA020401FA3C
:10D8200003F22243C262D6E7836843F080438360F9
:10D830007047C06C80B270470368194214BF012062
:10D840000020704730B5094C40F6FE7322688340D3
:10D8500022EA0302D1E900352B438D68C9682B43C6
:10D860000B4303FA00F01043206030BD0074004009
:10D87000012303FA00F0044B1A6811B11043186039
:10D88000704722EA0000FAE70074004082B00023EB
:10D890000193054B0193019B083318440190019BB0
:10D8A000196002B0704700BF00740040044B1A6951
:10D8B000002ABFBF034A5A6002F188325A6070479B
:10D8C000003C024023016745024A136943F00043CC
:10D8D00013617047003C0240044B5A69D20741BFB4
:10D8E000034A9A6002F144329A607047003C024059
:10D8F0003B2A1908024A536943F0010353617047F8
:10D90000003C0240024B587DAA3818BF01207047E6
:10D91000003C02400E4BDA68D20310D4DA68D1061C
:10D920000FD4DA68D2050ED4DA6812F0E00F0CD109
:10D93000DB6813F0020F14BF082009207047012094
:10D94000704706207047022070470720704700BFCD
:10D95000003C024007B509238DF80730FFF7DAFFD6
:10D960008DF807009DF80730012BF7D09DF80700D0
:10D9700003B05DF804FB000070B5064659B30129F9
:10D980002BD002290CBF4FF400754FF44075FFF700
:10D99000E1FF09281ED1124C236923F4407323614F
:10D9A000216929432161236923F0F8032361206958
:10D9B000304340F002002061236943F48033236147
:10D9C000FFF7C8FF236923F002032361236923F0D3
:10D9D000F803236170BD0D46D9E74FF48075D6E793
:10D9E000003C024070B505460E46FFF7B3FF09281C
:10D9F00013D10A4C236923F440732361236943F450
:10DA000000732361236943F0010323612E60FFF754
:10DA1000A1FF236923F00103236170BD003C024094
:10DA200010B50446FFF796FF092804BF014B5C754B
:10DA300010BD00BF003C0240034A137D43F00203C7
:10DA40001375FFF787BF00BF003C024001F00703DA
:10DA5000C90800EB810010B5016A9B000F249C40AF
:10DA600021EA04010162016A9A400A43026210BD80
:10DA7000F0B503F00306C3F301150024012707FAEC
:10DA800004FC3CEA010C02D00134102CF7D1D0F890
:10DA900000E0610003278F406FEA070C2EEA0707BA
:10DAA0000760D0F800E006FA01F7013E47EA0E07EA
:10DAB000012E076013D886680CEA06068660866821
:10DAC0008A403243826042680126A64022EA06026A
:10DAD00042609B094268A3409BB213434360C36802
